{
  "contractName": "ComplianceAndReporting",
  "abi": [
    {
      "inputs": [
        {
          "internalType": "address",
          "name": "supplyChainAddress",
          "type": "address"
        },
        {
          "internalType": "address",
          "name": "userManagementAddress",
          "type": "address"
        }
      ],
      "stateMutability": "nonpayable",
      "type": "constructor"
    },
    {
      "inputs": [
        {
          "internalType": "string",
          "name": "productId",
          "type": "string"
        }
      ],
      "name": "auditTransactionHistory",
      "outputs": [
        {
          "components": [
            {
              "internalType": "string",
              "name": "productId",
              "type": "string"
            },
            {
              "internalType": "address",
              "name": "origin",
              "type": "address"
            },
            {
              "internalType": "address",
              "name": "destination",
              "type": "address"
            },
            {
              "internalType": "enum SupplyChainManagement.ShipmentStatus",
              "name": "status",
              "type": "uint8"
            },
            {
              "internalType": "uint256",
              "name": "timestamp",
              "type": "uint256"
            }
          ],
          "internalType": "struct SupplyChainManagement.Shipment[]",
          "name": "",
          "type": "tuple[]"
        }
      ],
      "stateMutability": "view",
      "type": "function",
      "constant": true
    },
    {
      "inputs": [
        {
          "internalType": "string",
          "name": "productId",
          "type": "string"
        }
      ],
      "name": "generateComplianceReport",
      "outputs": [
        {
          "internalType": "uint256",
          "name": "",
          "type": "uint256"
        }
      ],
      "stateMutability": "view",
      "type": "function",
      "constant": true
    }
  ],
  "bytecode": "0x608060405234801561001057600080fd5b50604051610b67380380610b678339818101604052810190610032919061011d565b816000806101000a81548173ffffffffffffffffffffffffffffffffffffffff021916908373ffffffffffffffffffffffffffffffffffffffff16021790555080600160006101000a81548173ffffffffffffffffffffffffffffffffffffffff021916908373ffffffffffffffffffffffffffffffffffffffff160217905550505061015d565b600080fd5b600073ffffffffffffffffffffffffffffffffffffffff82169050919050565b60006100ea826100bf565b9050919050565b6100fa816100df565b811461010557600080fd5b50565b600081519050610117816100f1565b92915050565b60008060408385031215610134576101336100ba565b5b600061014285828601610108565b925050602061015385828601610108565b9150509250929050565b6109fb8061016c6000396000f3fe608060405234801561001057600080fd5b50600436106100365760003560e01c80634b4d3fce1461003b5780635980bc051461006b575b600080fd5b61005560048036038101906100509190610341565b61009b565b6040516100629190610612565b60405180910390f35b61008560048036038101906100809190610341565b610143565b6040516100929190610643565b60405180910390f35b606060008054906101000a900473ffffffffffffffffffffffffffffffffffffffff1673ffffffffffffffffffffffffffffffffffffffff166303e39f0a836040518263ffffffff1660e01b81526004016100f691906106a8565b600060405180830381865afa158015610113573d6000803e3d6000fd5b505050506040513d6000823e3d601f19601f8201168201806040525081019061013c919061094f565b9050919050565b60008060009054906101000a900473ffffffffffffffffffffffffffffffffffffffff1673ffffffffffffffffffffffffffffffffffffffff166306c7dea8836040518263ffffffff1660e01b815260040161019f91906106a8565b602060405180830381865afa1580156101bc573d6000803e3d6000fd5b505050506040513d601f19601f820116820180604052508101906101e09190610998565b9050919050565b6000604051905090565b600080fd5b600080fd5b600080fd5b600080fd5b6000601f19601f8301169050919050565b7f4e487b7100000000000000000000000000000000000000000000000000000000600052604160045260246000fd5b61024e82610205565b810181811067ffffffffffffffff8211171561026d5761026c610216565b5b80604052505050565b60006102806101e7565b905061028c8282610245565b919050565b600067ffffffffffffffff8211156102ac576102ab610216565b5b6102b582610205565b9050602081019050919050565b82818337600083830152505050565b60006102e46102df84610291565b610276565b905082815260208101848484011115610300576102ff610200565b5b61030b8482856102c2565b509392505050565b600082601f830112610328576103276101fb565b5b81356103388482602086016102d1565b91505092915050565b600060208284031215610357576103566101f1565b5b600082013567ffffffffffffffff811115610375576103746101f6565b5b61038184828501610313565b91505092915050565b600081519050919050565b600082825260208201905092915050565b6000819050602082019050919050565b600081519050919050565b600082825260208201905092915050565b60005b838110156103f05780820151818401526020810190506103d5565b60008484015250505050565b6000610407826103b6565b61041181856103c1565b93506104218185602086016103d2565b61042a81610205565b840191505092915050565b600073ffffffffffffffffffffffffffffffffffffffff82169050919050565b600061046082610435565b9050919050565b61047081610455565b82525050565b7f4e487b7100000000000000000000000000000000000000000000000000000000600052602160045260246000fd5b600481106104b6576104b5610476565b5b50565b60008190506104c7826104a5565b919050565b60006104d7826104b9565b9050919050565b6104e7816104cc565b82525050565b6000819050919050565b610500816104ed565b82525050565b600060a083016000830151848203600086015261052382826103fc565b91505060208301516105386020860182610467565b50604083015161054b6040860182610467565b50606083015161055e60608601826104de565b50608083015161057160808601826104f7565b508091505092915050565b60006105888383610506565b905092915050565b6000602082019050919050565b60006105a88261038a565b6105b28185610395565b9350836020820285016105c4856103a6565b8060005b8581101561060057848403895281516105e1858261057c565b94506105ec83610590565b925060208a019950506001810190506105c8565b50829750879550505050505092915050565b6000602082019050818103600083015261062c818461059d565b905092915050565b61063d816104ed565b82525050565b60006020820190506106586000830184610634565b92915050565b600082825260208201905092915050565b600061067a826103b6565b610684818561065e565b93506106948185602086016103d2565b61069d81610205565b840191505092915050565b600060208201905081810360008301526106c2818461066f565b905092915050565b600067ffffffffffffffff8211156106e5576106e4610216565b5b602082029050602081019050919050565b600080fd5b600080fd5b600080fd5b600061071861071384610291565b610276565b90508281526020810184848401111561073457610733610200565b5b61073f8482856103d2565b509392505050565b600082601f83011261075c5761075b6101fb565b5b815161076c848260208601610705565b91505092915050565b61077e81610455565b811461078957600080fd5b50565b60008151905061079b81610775565b92915050565b600481106107ae57600080fd5b50565b6000815190506107c0816107a1565b92915050565b6107cf816104ed565b81146107da57600080fd5b50565b6000815190506107ec816107c6565b92915050565b600060a08284031215610808576108076106fb565b5b61081260a0610276565b9050600082015167ffffffffffffffff81111561083257610831610700565b5b61083e84828501610747565b60008301525060206108528482850161078c565b60208301525060406108668482850161078c565b604083015250606061087a848285016107b1565b606083015250608061088e848285016107dd565b60808301525092915050565b60006108ad6108a8846106ca565b610276565b905080838252602082019050602084028301858111156108d0576108cf6106f6565b5b835b8181101561091757805167ffffffffffffffff8111156108f5576108f46101fb565b5b80860161090289826107f2565b855260208501945050506020810190506108d2565b5050509392505050565b600082601f830112610936576109356101fb565b5b815161094684826020860161089a565b91505092915050565b600060208284031215610965576109646101f1565b5b600082015167ffffffffffffffff811115610983576109826101f6565b5b61098f84828501610921565b91505092915050565b6000602082840312156109ae576109ad6101f1565b5b60006109bc848285016107dd565b9150509291505056fea2646970667358221220c21d19e9f797f942e73ed97442c5513079cbef4470f543f0dfa26a18d7a2627d64736f6c63430008130033",
  "immutableReferences": {},
  "source": "// SPDX-License-Identifier: MIT\npragma solidity ^0.8.19;\n\nimport \"./SupplyChainManagementContract.sol\";\nimport \"./UserManagementContract.sol\";\n\ncontract ComplianceAndReporting {\n    SupplyChainManagement private supplyChain;\n    UserManagement private userManagement;\n\n    constructor(address supplyChainAddress, address userManagementAddress) {\n        supplyChain = SupplyChainManagement(supplyChainAddress);\n        userManagement = UserManagement(userManagementAddress);\n    }\n\n    function auditTransactionHistory(string memory productId) public view returns (SupplyChainManagement.Shipment[] memory) {\n        return supplyChain.getShipmentHistory(productId);\n    }\n\n    function generateComplianceReport(string memory productId) public view returns (uint256) {\n        // Implementation of compliance report generation\n        return supplyChain.getShipmentCount(productId);\n    }\n}\n",
  "sourcePath": "D:\\Projects\\colossus\\contracts\\CompilationAndReporting.sol",
  "compiler": {
    "name": "solc",
    "version": "0.8.19+commit.7dd6d404.Emscripten.clang"
  },
  "schemaVersion": "3.4.16",
  "updatedAt": "2024-09-14T02:26:05.492Z",
  "networkType": "ethereum",
  "devdoc": {
    "kind": "dev",
    "methods": {},
    "version": 1
  },
  "userdoc": {
    "kind": "user",
    "methods": {},
    "version": 1
  }
}