{
  "contractName": "ConsumerTransparency",
  "abi": [
    {
      "inputs": [
        {
          "internalType": "address",
          "name": "supplyChainAddress",
          "type": "address"
        }
      ],
      "stateMutability": "nonpayable",
      "type": "constructor"
    },
    {
      "inputs": [
        {
          "internalType": "string",
          "name": "productId",
          "type": "string"
        }
      ],
      "name": "getProvenance",
      "outputs": [
        {
          "components": [
            {
              "internalType": "string",
              "name": "productId",
              "type": "string"
            },
            {
              "internalType": "address",
              "name": "origin",
              "type": "address"
            },
            {
              "internalType": "address",
              "name": "destination",
              "type": "address"
            },
            {
              "internalType": "enum SupplyChainManagement.ShipmentStatus",
              "name": "status",
              "type": "uint8"
            },
            {
              "internalType": "uint256",
              "name": "timestamp",
              "type": "uint256"
            }
          ],
          "internalType": "struct SupplyChainManagement.Shipment[]",
          "name": "",
          "type": "tuple[]"
        }
      ],
      "stateMutability": "view",
      "type": "function",
      "constant": true
    },
    {
      "inputs": [
        {
          "internalType": "string",
          "name": "productId",
          "type": "string"
        }
      ],
      "name": "getQualityChecks",
      "outputs": [
        {
          "components": [
            {
              "internalType": "string",
              "name": "productId",
              "type": "string"
            },
            {
              "internalType": "address",
              "name": "origin",
              "type": "address"
            },
            {
              "internalType": "address",
              "name": "destination",
              "type": "address"
            },
            {
              "internalType": "enum SupplyChainManagement.ShipmentStatus",
              "name": "status",
              "type": "uint8"
            },
            {
              "internalType": "uint256",
              "name": "timestamp",
              "type": "uint256"
            }
          ],
          "internalType": "struct SupplyChainManagement.Shipment[]",
          "name": "",
          "type": "tuple[]"
        }
      ],
      "stateMutability": "view",
      "type": "function",
      "constant": true
    },
    {
      "inputs": [
        {
          "internalType": "string",
          "name": "productId",
          "type": "string"
        }
      ],
      "name": "getCertifications",
      "outputs": [
        {
          "internalType": "string",
          "name": "",
          "type": "string"
        }
      ],
      "stateMutability": "view",
      "type": "function",
      "constant": true
    }
  ],
  "bytecode": "0x608060405234801561001057600080fd5b50604051610b39380380610b39833981810160405281019061003291906100db565b806000806101000a81548173ffffffffffffffffffffffffffffffffffffffff021916908373ffffffffffffffffffffffffffffffffffffffff16021790555050610108565b600080fd5b600073ffffffffffffffffffffffffffffffffffffffff82169050919050565b60006100a88261007d565b9050919050565b6100b88161009d565b81146100c357600080fd5b50565b6000815190506100d5816100af565b92915050565b6000602082840312156100f1576100f0610078565b5b60006100ff848285016100c6565b91505092915050565b610a22806101176000396000f3fe608060405234801561001057600080fd5b50600436106100415760003560e01c806375cfd50814610046578063b386f5f014610076578063b8caf8b0146100a6575b600080fd5b610060600480360381019061005b91906103bf565b6100d6565b60405161006d9190610487565b60405180910390f35b610090600480360381019061008b91906103bf565b610115565b60405161009d91906106fc565b60405180910390f35b6100c060048036038101906100bb91906103bf565b6101bd565b6040516100cd91906106fc565b60405180910390f35b60606040518060400160405280600981526020017f43657274696669656400000000000000000000000000000000000000000000008152509050919050565b606060008054906101000a900473ffffffffffffffffffffffffffffffffffffffff1673ffffffffffffffffffffffffffffffffffffffff166303e39f0a836040518263ffffffff1660e01b81526004016101709190610487565b600060405180830381865afa15801561018d573d6000803e3d6000fd5b505050506040513d6000823e3d601f19601f820116820180604052508101906101b691906109a3565b9050919050565b606060008054906101000a900473ffffffffffffffffffffffffffffffffffffffff1673ffffffffffffffffffffffffffffffffffffffff166303e39f0a836040518263ffffffff1660e01b81526004016102189190610487565b600060405180830381865afa158015610235573d6000803e3d6000fd5b505050506040513d6000823e3d601f19601f8201168201806040525081019061025e91906109a3565b9050919050565b6000604051905090565b600080fd5b600080fd5b600080fd5b600080fd5b6000601f19601f8301169050919050565b7f4e487b7100000000000000000000000000000000000000000000000000000000600052604160045260246000fd5b6102cc82610283565b810181811067ffffffffffffffff821117156102eb576102ea610294565b5b80604052505050565b60006102fe610265565b905061030a82826102c3565b919050565b600067ffffffffffffffff82111561032a57610329610294565b5b61033382610283565b9050602081019050919050565b82818337600083830152505050565b600061036261035d8461030f565b6102f4565b90508281526020810184848401111561037e5761037d61027e565b5b610389848285610340565b509392505050565b600082601f8301126103a6576103a5610279565b5b81356103b684826020860161034f565b91505092915050565b6000602082840312156103d5576103d461026f565b5b600082013567ffffffffffffffff8111156103f3576103f2610274565b5b6103ff84828501610391565b91505092915050565b600081519050919050565b600082825260208201905092915050565b60005b83811015610442578082015181840152602081019050610427565b60008484015250505050565b600061045982610408565b6104638185610413565b9350610473818560208601610424565b61047c81610283565b840191505092915050565b600060208201905081810360008301526104a1818461044e565b905092915050565b600081519050919050565b600082825260208201905092915050565b6000819050602082019050919050565b600082825260208201905092915050565b60006104f182610408565b6104fb81856104d5565b935061050b818560208601610424565b61051481610283565b840191505092915050565b600073ffffffffffffffffffffffffffffffffffffffff82169050919050565b600061054a8261051f565b9050919050565b61055a8161053f565b82525050565b7f4e487b7100000000000000000000000000000000000000000000000000000000600052602160045260246000fd5b600481106105a05761059f610560565b5b50565b60008190506105b18261058f565b919050565b60006105c1826105a3565b9050919050565b6105d1816105b6565b82525050565b6000819050919050565b6105ea816105d7565b82525050565b600060a083016000830151848203600086015261060d82826104e6565b91505060208301516106226020860182610551565b5060408301516106356040860182610551565b50606083015161064860608601826105c8565b50608083015161065b60808601826105e1565b508091505092915050565b600061067283836105f0565b905092915050565b6000602082019050919050565b6000610692826104a9565b61069c81856104b4565b9350836020820285016106ae856104c5565b8060005b858110156106ea57848403895281516106cb8582610666565b94506106d68361067a565b925060208a019950506001810190506106b2565b50829750879550505050505092915050565b600060208201905081810360008301526107168184610687565b905092915050565b600067ffffffffffffffff82111561073957610738610294565b5b602082029050602081019050919050565b600080fd5b600080fd5b600080fd5b600061076c6107678461030f565b6102f4565b9050828152602081018484840111156107885761078761027e565b5b610793848285610424565b509392505050565b600082601f8301126107b0576107af610279565b5b81516107c0848260208601610759565b91505092915050565b6107d28161053f565b81146107dd57600080fd5b50565b6000815190506107ef816107c9565b92915050565b6004811061080257600080fd5b50565b600081519050610814816107f5565b92915050565b610823816105d7565b811461082e57600080fd5b50565b6000815190506108408161081a565b92915050565b600060a0828403121561085c5761085b61074f565b5b61086660a06102f4565b9050600082015167ffffffffffffffff81111561088657610885610754565b5b6108928482850161079b565b60008301525060206108a6848285016107e0565b60208301525060406108ba848285016107e0565b60408301525060606108ce84828501610805565b60608301525060806108e284828501610831565b60808301525092915050565b60006109016108fc8461071e565b6102f4565b905080838252602082019050602084028301858111156109245761092361074a565b5b835b8181101561096b57805167ffffffffffffffff81111561094957610948610279565b5b8086016109568982610846565b85526020850194505050602081019050610926565b5050509392505050565b600082601f83011261098a57610989610279565b5b815161099a8482602086016108ee565b91505092915050565b6000602082840312156109b9576109b861026f565b5b600082015167ffffffffffffffff8111156109d7576109d6610274565b5b6109e384828501610975565b9150509291505056fea2646970667358221220a890db6e32afc41b330600fe05adc8c77cb1a9cee4af28c6bc613ff765d7d11564736f6c63430008130033",
  "immutableReferences": {},
  "source": "// SPDX-License-Identifier: MIT\npragma solidity ^0.8.19;\n\nimport \"./SupplyChainManagementContract.sol\";\n\ncontract ConsumerTransparency {\n    SupplyChainManagement private supplyChain;\n\n    constructor(address supplyChainAddress) {\n        supplyChain = SupplyChainManagement(supplyChainAddress);\n    }\n\n    function getProvenance(string memory productId) public view returns (SupplyChainManagement.Shipment[] memory) {\n        return supplyChain.getShipmentHistory(productId);\n    }\n\n    function getQualityChecks(string memory productId) public view returns (SupplyChainManagement.Shipment[] memory) {\n        // Implementation of quality checks\n        return supplyChain.getShipmentHistory(productId);\n    }\n\n    function getCertifications(string memory productId) public view returns (string memory) {\n        // Implementation of certifications retrieval\n        return \"Certified\";\n    }\n}\n",
  "sourcePath": "D:\\Projects\\colossus\\contracts\\ConsumerTransparencyContract.sol",
  "compiler": {
    "name": "solc",
    "version": "0.8.19+commit.7dd6d404.Emscripten.clang"
  },
  "schemaVersion": "3.4.16",
  "updatedAt": "2024-09-14T02:26:05.509Z",
  "networkType": "ethereum",
  "devdoc": {
    "kind": "dev",
    "methods": {},
    "version": 1
  },
  "userdoc": {
    "kind": "user",
    "methods": {},
    "version": 1
  }
}