{
  "contractName": "DisputeResolution",
  "abi": [
    {
      "anonymous": false,
      "inputs": [
        {
          "indexed": false,
          "internalType": "uint256",
          "name": "disputeId",
          "type": "uint256"
        },
        {
          "indexed": false,
          "internalType": "string",
          "name": "productId",
          "type": "string"
        },
        {
          "indexed": false,
          "internalType": "address",
          "name": "initiator",
          "type": "address"
        },
        {
          "indexed": false,
          "internalType": "string",
          "name": "issue",
          "type": "string"
        }
      ],
      "name": "DisputeInitiated",
      "type": "event"
    },
    {
      "anonymous": false,
      "inputs": [
        {
          "indexed": false,
          "internalType": "uint256",
          "name": "disputeId",
          "type": "uint256"
        },
        {
          "indexed": false,
          "internalType": "string",
          "name": "resolution",
          "type": "string"
        }
      ],
      "name": "DisputeResolved",
      "type": "event"
    },
    {
      "inputs": [
        {
          "internalType": "uint256",
          "name": "",
          "type": "uint256"
        }
      ],
      "name": "disputes",
      "outputs": [
        {
          "internalType": "uint256",
          "name": "disputeId",
          "type": "uint256"
        },
        {
          "internalType": "string",
          "name": "productId",
          "type": "string"
        },
        {
          "internalType": "address",
          "name": "initiator",
          "type": "address"
        },
        {
          "internalType": "string",
          "name": "issue",
          "type": "string"
        },
        {
          "internalType": "string",
          "name": "details",
          "type": "string"
        },
        {
          "internalType": "bool",
          "name": "resolved",
          "type": "bool"
        },
        {
          "internalType": "string",
          "name": "resolution",
          "type": "string"
        },
        {
          "internalType": "bytes32",
          "name": "evidenceHash",
          "type": "bytes32"
        }
      ],
      "stateMutability": "view",
      "type": "function",
      "constant": true
    },
    {
      "inputs": [
        {
          "internalType": "string",
          "name": "productId",
          "type": "string"
        },
        {
          "internalType": "string",
          "name": "issue",
          "type": "string"
        },
        {
          "internalType": "string",
          "name": "details",
          "type": "string"
        }
      ],
      "name": "initiateDispute",
      "outputs": [],
      "stateMutability": "nonpayable",
      "type": "function"
    },
    {
      "inputs": [
        {
          "internalType": "uint256",
          "name": "disputeId",
          "type": "uint256"
        },
        {
          "internalType": "string",
          "name": "resolution",
          "type": "string"
        }
      ],
      "name": "resolveDispute",
      "outputs": [],
      "stateMutability": "nonpayable",
      "type": "function"
    },
    {
      "inputs": [
        {
          "internalType": "uint256",
          "name": "disputeId",
          "type": "uint256"
        }
      ],
      "name": "getDispute",
      "outputs": [
        {
          "components": [
            {
              "internalType": "uint256",
              "name": "disputeId",
              "type": "uint256"
            },
            {
              "internalType": "string",
              "name": "productId",
              "type": "string"
            },
            {
              "internalType": "address",
              "name": "initiator",
              "type": "address"
            },
            {
              "internalType": "string",
              "name": "issue",
              "type": "string"
            },
            {
              "internalType": "string",
              "name": "details",
              "type": "string"
            },
            {
              "internalType": "bool",
              "name": "resolved",
              "type": "bool"
            },
            {
              "internalType": "string",
              "name": "resolution",
              "type": "string"
            },
            {
              "internalType": "bytes32",
              "name": "evidenceHash",
              "type": "bytes32"
            }
          ],
          "internalType": "struct DisputeResolution.Dispute",
          "name": "",
          "type": "tuple"
        }
      ],
      "stateMutability": "view",
      "type": "function",
      "constant": true
    }
  ],
  "bytecode": "0x608060405234801561001057600080fd5b506113ca806100206000396000f3fe608060405234801561001057600080fd5b506004361061004c5760003560e01c80632cb01f8314610051578063564a565d1461006d578063cf51b45d146100a4578063e3a96cbd146100c0575b600080fd5b61006b60048036038101906100669190610ae0565b6100f0565b005b61008760048036038101906100829190610bbd565b61029d565b60405161009b989796959493929190610ced565b60405180910390f35b6100be60048036038101906100b99190610d87565b610532565b005b6100da60048036038101906100d59190610bbd565b61062b565b6040516100e79190610f2e565b60405180910390f35b60008081548092919061010290610f7f565b919050555060405180610100016040528060005481526020018481526020013373ffffffffffffffffffffffffffffffffffffffff168152602001838152602001828152602001600015158152602001604051806020016040528060008152508152602001600080191681525060016000805481526020019081526020016000206000820151816000015560208201518160010190816101a291906111d3565b5060408201518160020160006101000a81548173ffffffffffffffffffffffffffffffffffffffff021916908373ffffffffffffffffffffffffffffffffffffffff16021790555060608201518160030190816101ff91906111d3565b50608082015181600401908161021591906111d3565b5060a08201518160050160006101000a81548160ff02191690831515021790555060c082015181600601908161024b91906111d3565b5060e082015181600701559050507fe5c3e911c975840aea990d9fcbc1b5b7cc8e2413ed9227e8e47bdd2c365fd68960005484338560405161029094939291906112a5565b60405180910390a1505050565b60016020528060005260406000206000915090508060000154908060010180546102c690610ff6565b80601f01602080910402602001604051908101604052809291908181526020018280546102f290610ff6565b801561033f5780601f106103145761010080835404028352916020019161033f565b820191906000526020600020905b81548152906001019060200180831161032257829003601f168201915b5050505050908060020160009054906101000a900473ffffffffffffffffffffffffffffffffffffffff169080600301805461037a90610ff6565b80601f01602080910402602001604051908101604052809291908181526020018280546103a690610ff6565b80156103f35780601f106103c8576101008083540402835291602001916103f3565b820191906000526020600020905b8154815290600101906020018083116103d657829003601f168201915b50505050509080600401805461040890610ff6565b80601f016020809104026020016040519081016040528092919081815260200182805461043490610ff6565b80156104815780601f1061045657610100808354040283529160200191610481565b820191906000526020600020905b81548152906001019060200180831161046457829003601f168201915b5050505050908060050160009054906101000a900460ff16908060060180546104a990610ff6565b80601f01602080910402602001604051908101604052809291908181526020018280546104d590610ff6565b80156105225780601f106104f757610100808354040283529160200191610522565b820191906000526020600020905b81548152906001019060200180831161050557829003601f168201915b5050505050908060070154905088565b600015156001600084815260200190815260200160002060050160009054906101000a900460ff1615151461059c576040517f08c379a000000000000000000000000000000000000000000000000000000000815260040161059390611344565b60405180910390fd5b600180600084815260200190815260200160002060050160006101000a81548160ff021916908315150217905550806001600084815260200190815260200160002060060190816105ed91906111d3565b507f831764ac02a33c193cba23a0de34c986e9b50402bf3c9febf6ff2f63d4c0435d828260405161061f929190611364565b60405180910390a15050565b610633610926565b60016000838152602001908152602001600020604051806101000160405290816000820154815260200160018201805461066c90610ff6565b80601f016020809104026020016040519081016040528092919081815260200182805461069890610ff6565b80156106e55780601f106106ba576101008083540402835291602001916106e5565b820191906000526020600020905b8154815290600101906020018083116106c857829003601f168201915b505050505081526020016002820160009054906101000a900473ffffffffffffffffffffffffffffffffffffffff1673ffffffffffffffffffffffffffffffffffffffff1673ffffffffffffffffffffffffffffffffffffffff16815260200160038201805461075490610ff6565b80601f016020809104026020016040519081016040528092919081815260200182805461078090610ff6565b80156107cd5780601f106107a2576101008083540402835291602001916107cd565b820191906000526020600020905b8154815290600101906020018083116107b057829003601f168201915b505050505081526020016004820180546107e690610ff6565b80601f016020809104026020016040519081016040528092919081815260200182805461081290610ff6565b801561085f5780601f106108345761010080835404028352916020019161085f565b820191906000526020600020905b81548152906001019060200180831161084257829003601f168201915b505050505081526020016005820160009054906101000a900460ff1615151515815260200160068201805461089390610ff6565b80601f01602080910402602001604051908101604052809291908181526020018280546108bf90610ff6565b801561090c5780601f106108e15761010080835404028352916020019161090c565b820191906000526020600020905b8154815290600101906020018083116108ef57829003601f168201915b505050505081526020016007820154815250509050919050565b6040518061010001604052806000815260200160608152602001600073ffffffffffffffffffffffffffffffffffffffff168152602001606081526020016060815260200160001515815260200160608152602001600080191681525090565b6000604051905090565b600080fd5b600080fd5b600080fd5b600080fd5b6000601f19601f8301169050919050565b7f4e487b7100000000000000000000000000000000000000000000000000000000600052604160045260246000fd5b6109ed826109a4565b810181811067ffffffffffffffff82111715610a0c57610a0b6109b5565b5b80604052505050565b6000610a1f610986565b9050610a2b82826109e4565b919050565b600067ffffffffffffffff821115610a4b57610a4a6109b5565b5b610a54826109a4565b9050602081019050919050565b82818337600083830152505050565b6000610a83610a7e84610a30565b610a15565b905082815260208101848484011115610a9f57610a9e61099f565b5b610aaa848285610a61565b509392505050565b600082601f830112610ac757610ac661099a565b5b8135610ad7848260208601610a70565b91505092915050565b600080600060608486031215610af957610af8610990565b5b600084013567ffffffffffffffff811115610b1757610b16610995565b5b610b2386828701610ab2565b935050602084013567ffffffffffffffff811115610b4457610b43610995565b5b610b5086828701610ab2565b925050604084013567ffffffffffffffff811115610b7157610b70610995565b5b610b7d86828701610ab2565b9150509250925092565b6000819050919050565b610b9a81610b87565b8114610ba557600080fd5b50565b600081359050610bb781610b91565b92915050565b600060208284031215610bd357610bd2610990565b5b6000610be184828501610ba8565b91505092915050565b610bf381610b87565b82525050565b600081519050919050565b600082825260208201905092915050565b60005b83811015610c33578082015181840152602081019050610c18565b60008484015250505050565b6000610c4a82610bf9565b610c548185610c04565b9350610c64818560208601610c15565b610c6d816109a4565b840191505092915050565b600073ffffffffffffffffffffffffffffffffffffffff82169050919050565b6000610ca382610c78565b9050919050565b610cb381610c98565b82525050565b60008115159050919050565b610cce81610cb9565b82525050565b6000819050919050565b610ce781610cd4565b82525050565b600061010082019050610d03600083018b610bea565b8181036020830152610d15818a610c3f565b9050610d246040830189610caa565b8181036060830152610d368188610c3f565b90508181036080830152610d4a8187610c3f565b9050610d5960a0830186610cc5565b81810360c0830152610d6b8185610c3f565b9050610d7a60e0830184610cde565b9998505050505050505050565b60008060408385031215610d9e57610d9d610990565b5b6000610dac85828601610ba8565b925050602083013567ffffffffffffffff811115610dcd57610dcc610995565b5b610dd985828601610ab2565b9150509250929050565b610dec81610b87565b82525050565b600082825260208201905092915050565b6000610e0e82610bf9565b610e188185610df2565b9350610e28818560208601610c15565b610e31816109a4565b840191505092915050565b610e4581610c98565b82525050565b610e5481610cb9565b82525050565b610e6381610cd4565b82525050565b600061010083016000830151610e826000860182610de3565b5060208301518482036020860152610e9a8282610e03565b9150506040830151610eaf6040860182610e3c565b5060608301518482036060860152610ec78282610e03565b91505060808301518482036080860152610ee18282610e03565b91505060a0830151610ef660a0860182610e4b565b5060c083015184820360c0860152610f0e8282610e03565b91505060e0830151610f2360e0860182610e5a565b508091505092915050565b60006020820190508181036000830152610f488184610e69565b905092915050565b7f4e487b7100000000000000000000000000000000000000000000000000000000600052601160045260246000fd5b6000610f8a82610b87565b91507fffffffffffffffffffffffffffffffffffffffffffffffffffffffffffffffff8203610fbc57610fbb610f50565b5b600182019050919050565b7f4e487b7100000000000000000000000000000000000000000000000000000000600052602260045260246000fd5b6000600282049050600182168061100e57607f821691505b60208210810361102157611020610fc7565b5b50919050565b60008190508160005260206000209050919050565b60006020601f8301049050919050565b600082821b905092915050565b6000600883026110897fffffffffffffffffffffffffffffffffffffffffffffffffffffffffffffffff8261104c565b611093868361104c565b95508019841693508086168417925050509392505050565b6000819050919050565b60006110d06110cb6110c684610b87565b6110ab565b610b87565b9050919050565b6000819050919050565b6110ea836110b5565b6110fe6110f6826110d7565b848454611059565b825550505050565b600090565b611113611106565b61111e8184846110e1565b505050565b5b818110156111425761113760008261110b565b600181019050611124565b5050565b601f8211156111875761115881611027565b6111618461103c565b81016020851015611170578190505b61118461117c8561103c565b830182611123565b50505b505050565b600082821c905092915050565b60006111aa6000198460080261118c565b1980831691505092915050565b60006111c38383611199565b9150826002028217905092915050565b6111dc82610bf9565b67ffffffffffffffff8111156111f5576111f46109b5565b5b6111ff8254610ff6565b61120a828285611146565b600060209050601f83116001811461123d576000841561122b578287015190505b61123585826111b7565b86555061129d565b601f19841661124b86611027565b60005b828110156112735784890151825560018201915060208501945060208101905061124e565b86831015611290578489015161128c601f891682611199565b8355505b6001600288020188555050505b505050505050565b60006080820190506112ba6000830187610bea565b81810360208301526112cc8186610c3f565b90506112db6040830185610caa565b81810360608301526112ed8184610c3f565b905095945050505050565b7f4469737075746520616c7265616479207265736f6c7665640000000000000000600082015250565b600061132e601883610c04565b9150611339826112f8565b602082019050919050565b6000602082019050818103600083015261135d81611321565b9050919050565b60006040820190506113796000830185610bea565b818103602083015261138b8184610c3f565b9050939250505056fea2646970667358221220885b106d161de2ab02c1b1430a0f59446d2bbcb3fad4782db898901e60bd388264736f6c63430008130033",
  "immutableReferences": {},
  "source": "// SPDX-License-Identifier: MIT\npragma solidity ^0.8.19;\n\ncontract DisputeResolution {\n    struct Dispute {\n        uint256 disputeId;\n        string productId;\n        address initiator;\n        string issue;\n        string details;\n        bool resolved;\n        string resolution;\n        bytes32 evidenceHash; \n    }\n\n    uint256 private disputeCounter;\n    mapping(uint256 => Dispute) public disputes;\n\n    event DisputeInitiated(uint256 disputeId, string productId, address initiator, string issue);\n    event DisputeResolved(uint256 disputeId, string resolution);\n\n    function initiateDispute(string memory productId, string memory issue, string memory details) public {\n        disputeCounter++;\n        disputes[disputeCounter] = Dispute(disputeCounter, productId, msg.sender, issue, details, false, \"\", \"\");\n        emit DisputeInitiated(disputeCounter, productId, msg.sender, issue);\n    }\n\n    function resolveDispute(uint256 disputeId, string memory resolution) public {\n        require(disputes[disputeId].resolved == false, \"Dispute already resolved\");\n        disputes[disputeId].resolved = true;\n        disputes[disputeId].resolution = resolution;\n        emit DisputeResolved(disputeId, resolution);\n    }\n\n    function getDispute(uint256 disputeId) public view returns (Dispute memory) {\n        return disputes[disputeId];\n    }\n}\n",
  "sourcePath": "D:\\Projects\\colossus\\contracts\\DisputeResolutionContract.sol",
  "compiler": {
    "name": "solc",
    "version": "0.8.19+commit.7dd6d404.Emscripten.clang"
  },
  "schemaVersion": "3.4.16",
  "updatedAt": "2024-09-14T02:26:05.526Z",
  "networkType": "ethereum",
  "devdoc": {
    "kind": "dev",
    "methods": {},
    "version": 1
  },
  "userdoc": {
    "kind": "user",
    "methods": {},
    "version": 1
  }
}