{
  "contractName": "InventoryManagement",
  "abi": [
    {
      "inputs": [
        {
          "internalType": "address",
          "name": "userManagementAddress",
          "type": "address"
        }
      ],
      "stateMutability": "nonpayable",
      "type": "constructor"
    },
    {
      "anonymous": false,
      "inputs": [
        {
          "indexed": false,
          "internalType": "string",
          "name": "productId",
          "type": "string"
        },
        {
          "indexed": false,
          "internalType": "uint256",
          "name": "newPrice",
          "type": "uint256"
        }
      ],
      "name": "InventoryPriceUpdated",
      "type": "event"
    },
    {
      "anonymous": false,
      "inputs": [
        {
          "indexed": false,
          "internalType": "string",
          "name": "productId",
          "type": "string"
        },
        {
          "indexed": false,
          "internalType": "uint256",
          "name": "quantity",
          "type": "uint256"
        },
        {
          "indexed": false,
          "internalType": "uint256",
          "name": "price",
          "type": "uint256"
        }
      ],
      "name": "InventoryUpdated",
      "type": "event"
    },
    {
      "inputs": [
        {
          "internalType": "address",
          "name": "",
          "type": "address"
        },
        {
          "internalType": "string",
          "name": "",
          "type": "string"
        }
      ],
      "name": "inventories",
      "outputs": [
        {
          "internalType": "string",
          "name": "productId",
          "type": "string"
        },
        {
          "internalType": "uint256",
          "name": "quantity",
          "type": "uint256"
        },
        {
          "internalType": "uint256",
          "name": "price",
          "type": "uint256"
        }
      ],
      "stateMutability": "view",
      "type": "function",
      "constant": true
    },
    {
      "inputs": [
        {
          "internalType": "string",
          "name": "productId",
          "type": "string"
        },
        {
          "internalType": "address",
          "name": "msg_address",
          "type": "address"
        },
        {
          "internalType": "uint256",
          "name": "quantity",
          "type": "uint256"
        },
        {
          "internalType": "uint256",
          "name": "price",
          "type": "uint256"
        }
      ],
      "name": "updateInventory",
      "outputs": [],
      "stateMutability": "nonpayable",
      "type": "function"
    },
    {
      "inputs": [
        {
          "internalType": "string",
          "name": "productId",
          "type": "string"
        },
        {
          "internalType": "address",
          "name": "msg_address",
          "type": "address"
        }
      ],
      "name": "getInventory",
      "outputs": [
        {
          "internalType": "uint256",
          "name": "quantity",
          "type": "uint256"
        },
        {
          "internalType": "uint256",
          "name": "price",
          "type": "uint256"
        }
      ],
      "stateMutability": "view",
      "type": "function",
      "constant": true
    },
    {
      "inputs": [
        {
          "internalType": "string",
          "name": "productId",
          "type": "string"
        },
        {
          "internalType": "address",
          "name": "msg_address",
          "type": "address"
        }
      ],
      "name": "getInventoryHistory",
      "outputs": [
        {
          "internalType": "uint256[]",
          "name": "",
          "type": "uint256[]"
        },
        {
          "internalType": "uint256[]",
          "name": "",
          "type": "uint256[]"
        },
        {
          "internalType": "uint256[]",
          "name": "",
          "type": "uint256[]"
        }
      ],
      "stateMutability": "view",
      "type": "function",
      "constant": true
    },
    {
      "inputs": [
        {
          "internalType": "address",
          "name": "userAddress",
          "type": "address"
        },
        {
          "internalType": "string",
          "name": "productId",
          "type": "string"
        }
      ],
      "name": "getInventoryByAddress",
      "outputs": [
        {
          "internalType": "uint256",
          "name": "quantity",
          "type": "uint256"
        },
        {
          "internalType": "uint256",
          "name": "price",
          "type": "uint256"
        }
      ],
      "stateMutability": "view",
      "type": "function",
      "constant": true
    }
  ],
  "bytecode": "0x60806040523480156200001157600080fd5b50604051620016b4380380620016b48339818101604052810190620000379190620000e8565b806000806101000a81548173ffffffffffffffffffffffffffffffffffffffff021916908373ffffffffffffffffffffffffffffffffffffffff160217905550506200011a565b600080fd5b600073ffffffffffffffffffffffffffffffffffffffff82169050919050565b6000620000b08262000083565b9050919050565b620000c281620000a3565b8114620000ce57600080fd5b50565b600081519050620000e281620000b7565b92915050565b6000602082840312156200010157620001006200007e565b5b60006200011184828501620000d1565b91505092915050565b61158a806200012a6000396000f3fe608060405234801561001057600080fd5b50600436106100575760003560e01c80630610a3121461005c5780630aaf4d701461008d57806376bf3ebd146100bf57806386047811146100db578063b592b99b1461010c575b600080fd5b61007660048036038101906100719190610c6b565b61013e565b604051610084929190610ce0565b60405180910390f35b6100a760048036038101906100a29190610c6b565b61036f565b6040516100b693929190610dc7565b60405180910390f35b6100d960048036038101906100d49190610e3f565b6104e3565b005b6100f560048036038101906100f09190610ec2565b610765565b604051610103929190610ce0565b60405180910390f35b61012660048036038101906101219190610ec2565b6109de565b60405161013593929190610f9d565b60405180910390f35b6000806000600160008573ffffffffffffffffffffffffffffffffffffffff1673ffffffffffffffffffffffffffffffffffffffff168152602001908152602001600020856040516101909190611017565b90815260200160405180910390206040518060c00160405290816000820180546101b99061105d565b80601f01602080910402602001604051908101604052809291908181526020018280546101e59061105d565b80156102325780601f1061020757610100808354040283529160200191610232565b820191906000526020600020905b81548152906001019060200180831161021557829003601f168201915b5050505050815260200160018201548152602001600282015481526020016003820180548060200260200160405190810160405280929190818152602001828054801561029e57602002820191906000526020600020905b81548152602001906001019080831161028a575b50505050508152602001600482018054806020026020016040519081016040528092919081815260200182805480156102f657602002820191906000526020600020905b8154815260200190600101908083116102e2575b505050505081526020016005820180548060200260200160405190810160405280929190818152602001828054801561034e57602002820191906000526020600020905b81548152602001906001019080831161033a575b50505050508152505090508060200151816040015192509250509250929050565b60608060606000600160008673ffffffffffffffffffffffffffffffffffffffff1673ffffffffffffffffffffffffffffffffffffffff168152602001908152602001600020866040516103c39190611017565b908152602001604051809103902090508060040181600301826005018280548060200260200160405190810160405280929190818152602001828054801561042a57602002820191906000526020600020905b815481526020019060010190808311610416575b505050505092508180548060200260200160405190810160405280929190818152602001828054801561047c57602002820191906000526020600020905b815481526020019060010190808311610468575b50505050509150808054806020026020016040519081016040528092919081815260200182805480156104ce57602002820191906000526020600020905b8154815260200190600101908083116104ba575b50505050509050935093509350509250925092565b60008060009054906101000a900473ffffffffffffffffffffffffffffffffffffffff1673ffffffffffffffffffffffffffffffffffffffff16636f77926b856040518263ffffffff1660e01b815260040161053f919061109d565b600060405180830381865afa15801561055c573d6000803e3d6000fd5b505050506040513d6000823e3d601f19601f82011682018060405250810190610585919061114d565b9150506000600481111561059c5761059b6111a9565b5b8160048111156105af576105ae6111a9565b5b14806105df5750600260048111156105ca576105c96111a9565b5b8160048111156105dd576105dc6111a9565b5b145b61061e576040517f08c379a000000000000000000000000000000000000000000000000000000000815260040161061590611224565b60405180910390fd5b6000600160008673ffffffffffffffffffffffffffffffffffffffff1673ffffffffffffffffffffffffffffffffffffffff1681526020019081526020016000208660405161066d9190611017565b908152602001604051809103902090508581600001908161068e91906113f0565b508381600101819055508281600201819055508060040184908060018154018082558091505060019003906000526020600020016000909190919091505580600301839080600181540180825580915050600190039060005260206000200160009091909190915055806005014290806001815401808255809150506001900390600052602060002001600090919091909150557f44da7d193bf38c1c0962fffbcb836eac841ccf4f9e24ae4224165e76b60278ea86858560405161075593929190610f9d565b60405180910390a1505050505050565b6000806000600160008673ffffffffffffffffffffffffffffffffffffffff1673ffffffffffffffffffffffffffffffffffffffff168152602001908152602001600020846040516107b79190611017565b90815260200160405180910390206040518060c00160405290816000820180546107e09061105d565b80601f016020809104026020016040519081016040528092919081815260200182805461080c9061105d565b80156108595780601f1061082e57610100808354040283529160200191610859565b820191906000526020600020905b81548152906001019060200180831161083c57829003601f168201915b505050505081526020016001820154815260200160028201548152602001600382018054806020026020016040519081016040528092919081815260200182805480156108c557602002820191906000526020600020905b8154815260200190600101908083116108b1575b505050505081526020016004820180548060200260200160405190810160405280929190818152602001828054801561091d57602002820191906000526020600020905b815481526020019060010190808311610909575b505050505081526020016005820180548060200260200160405190810160405280929190818152602001828054801561097557602002820191906000526020600020905b815481526020019060010190808311610961575b50505050508152505090506000816000015151036109c8576040517f08c379a00000000000000000000000000000000000000000000000000000000081526004016109bf90611534565b60405180910390fd5b8060200151816040015192509250509250929050565b60016020528160005260406000208180516020810182018051848252602083016020850120818352809550505050505060009150915050806000018054610a249061105d565b80601f0160208091040260200160405190810160405280929190818152602001828054610a509061105d565b8015610a9d5780601f10610a7257610100808354040283529160200191610a9d565b820191906000526020600020905b815481529060010190602001808311610a8057829003601f168201915b5050505050908060010154908060020154905083565b6000604051905090565b600080fd5b600080fd5b600080fd5b600080fd5b6000601f19601f8301169050919050565b7f4e487b7100000000000000000000000000000000000000000000000000000000600052604160045260246000fd5b610b1a82610ad1565b810181811067ffffffffffffffff82111715610b3957610b38610ae2565b5b80604052505050565b6000610b4c610ab3565b9050610b588282610b11565b919050565b600067ffffffffffffffff821115610b7857610b77610ae2565b5b610b8182610ad1565b9050602081019050919050565b82818337600083830152505050565b6000610bb0610bab84610b5d565b610b42565b905082815260208101848484011115610bcc57610bcb610acc565b5b610bd7848285610b8e565b509392505050565b600082601f830112610bf457610bf3610ac7565b5b8135610c04848260208601610b9d565b91505092915050565b600073ffffffffffffffffffffffffffffffffffffffff82169050919050565b6000610c3882610c0d565b9050919050565b610c4881610c2d565b8114610c5357600080fd5b50565b600081359050610c6581610c3f565b92915050565b60008060408385031215610c8257610c81610abd565b5b600083013567ffffffffffffffff811115610ca057610c9f610ac2565b5b610cac85828601610bdf565b9250506020610cbd85828601610c56565b9150509250929050565b6000819050919050565b610cda81610cc7565b82525050565b6000604082019050610cf56000830185610cd1565b610d026020830184610cd1565b9392505050565b600081519050919050565b600082825260208201905092915050565b6000819050602082019050919050565b610d3e81610cc7565b82525050565b6000610d508383610d35565b60208301905092915050565b6000602082019050919050565b6000610d7482610d09565b610d7e8185610d14565b9350610d8983610d25565b8060005b83811015610dba578151610da18882610d44565b9750610dac83610d5c565b925050600181019050610d8d565b5085935050505092915050565b60006060820190508181036000830152610de18186610d69565b90508181036020830152610df58185610d69565b90508181036040830152610e098184610d69565b9050949350505050565b610e1c81610cc7565b8114610e2757600080fd5b50565b600081359050610e3981610e13565b92915050565b60008060008060808587031215610e5957610e58610abd565b5b600085013567ffffffffffffffff811115610e7757610e76610ac2565b5b610e8387828801610bdf565b9450506020610e9487828801610c56565b9350506040610ea587828801610e2a565b9250506060610eb687828801610e2a565b91505092959194509250565b60008060408385031215610ed957610ed8610abd565b5b6000610ee785828601610c56565b925050602083013567ffffffffffffffff811115610f0857610f07610ac2565b5b610f1485828601610bdf565b9150509250929050565b600081519050919050565b600082825260208201905092915050565b60005b83811015610f58578082015181840152602081019050610f3d565b60008484015250505050565b6000610f6f82610f1e565b610f798185610f29565b9350610f89818560208601610f3a565b610f9281610ad1565b840191505092915050565b60006060820190508181036000830152610fb78186610f64565b9050610fc66020830185610cd1565b610fd36040830184610cd1565b949350505050565b600081905092915050565b6000610ff182610f1e565b610ffb8185610fdb565b935061100b818560208601610f3a565b80840191505092915050565b60006110238284610fe6565b915081905092915050565b7f4e487b7100000000000000000000000000000000000000000000000000000000600052602260045260246000fd5b6000600282049050600182168061107557607f821691505b6020821081036110885761108761102e565b5b50919050565b61109781610c2d565b82525050565b60006020820190506110b2600083018461108e565b92915050565b60006110cb6110c684610b5d565b610b42565b9050828152602081018484840111156110e7576110e6610acc565b5b6110f2848285610f3a565b509392505050565b600082601f83011261110f5761110e610ac7565b5b815161111f8482602086016110b8565b91505092915050565b6005811061113557600080fd5b50565b60008151905061114781611128565b92915050565b6000806040838503121561116457611163610abd565b5b600083015167ffffffffffffffff81111561118257611181610ac2565b5b61118e858286016110fa565b925050602061119f85828601611138565b9150509250929050565b7f4e487b7100000000000000000000000000000000000000000000000000000000600052602160045260246000fd5b7f556e617574686f72697a656420757365722e0000000000000000000000000000600082015250565b600061120e601283610f29565b9150611219826111d8565b602082019050919050565b6000602082019050818103600083015261123d81611201565b9050919050565b60008190508160005260206000209050919050565b60006020601f8301049050919050565b600082821b905092915050565b6000600883026112a67fffffffffffffffffffffffffffffffffffffffffffffffffffffffffffffffff82611269565b6112b08683611269565b95508019841693508086168417925050509392505050565b6000819050919050565b60006112ed6112e86112e384610cc7565b6112c8565b610cc7565b9050919050565b6000819050919050565b611307836112d2565b61131b611313826112f4565b848454611276565b825550505050565b600090565b611330611323565b61133b8184846112fe565b505050565b5b8181101561135f57611354600082611328565b600181019050611341565b5050565b601f8211156113a45761137581611244565b61137e84611259565b8101602085101561138d578190505b6113a161139985611259565b830182611340565b50505b505050565b600082821c905092915050565b60006113c7600019846008026113a9565b1980831691505092915050565b60006113e083836113b6565b9150826002028217905092915050565b6113f982610f1e565b67ffffffffffffffff81111561141257611411610ae2565b5b61141c825461105d565b611427828285611363565b600060209050601f83116001811461145a5760008415611448578287015190505b61145285826113d4565b8655506114ba565b601f19841661146886611244565b60005b828110156114905784890151825560018201915060208501945060208101905061146b565b868310156114ad57848901516114a9601f8916826113b6565b8355505b6001600288020188555050505b505050505050565b7f50726f64756374206e6f7420666f756e6420696e2074686520696e76656e746f60008201527f7279000000000000000000000000000000000000000000000000000000000000602082015250565b600061151e602283610f29565b9150611529826114c2565b604082019050919050565b6000602082019050818103600083015261154d81611511565b905091905056fea26469706673582212208ab81c216a5ff7c2f03c7aa9a014193052d0382ef7c9fa9d2f6a6cbdf6e865e564736f6c63430008130033",
  "immutableReferences": {},
  "source": "// SPDX-License-Identifier: MIT\npragma solidity ^0.8.19;\n\nimport \"./UserManagementContract.sol\";\n\ncontract InventoryManagement {\n    UserManagement private userManagement;\n\n    struct Inventory {\n        string productId;\n        uint256 quantity;\n        uint256 price;\n        uint256[] priceHistory;\n        uint256[] quantityHistory; \n        uint256[] timestamps; \n    }\n\n    mapping(address => mapping(string => Inventory)) public inventories; \n\n    event InventoryUpdated(string productId, uint256 quantity, uint256 price);\n    event InventoryPriceUpdated(string productId, uint256 newPrice);\n\n    constructor(address userManagementAddress) {\n        userManagement = UserManagement(userManagementAddress);\n    }\n\n    function updateInventory(string memory productId, address msg_address, uint256 quantity, uint256 price) public {\n        (, UserManagement.Role role) = userManagement.getUser(msg_address);\n        require(\n            role == UserManagement.Role.Farmer || role == UserManagement.Role.Retailer, \n            \"Unauthorized user.\"\n        );\n\n        Inventory storage inventory = inventories[msg_address][productId];\n        inventory.productId = productId;\n        inventory.quantity = quantity;\n        inventory.price = price;\n\n        inventory.quantityHistory.push(quantity);\n        inventory.priceHistory.push(price);\n        inventory.timestamps.push(block.timestamp);\n\n        emit InventoryUpdated(productId, quantity, price);\n    }\n\n    function getInventory(string memory productId, address msg_address) public view returns (uint256 quantity, uint256 price) {\n        Inventory memory inventory = inventories[msg_address][productId];\n        return (inventory.quantity, inventory.price);\n    }\n\n    function getInventoryHistory(string memory productId, address msg_address) public view returns (uint256[] memory, uint256[] memory, uint256[] memory) {\n        Inventory storage inventory = inventories[msg_address][productId];\n        return (inventory.quantityHistory, inventory.priceHistory, inventory.timestamps);\n    }\n\n    function getInventoryByAddress(address userAddress, string memory productId) public view returns (uint256 quantity, uint256 price) {\n        Inventory memory inventory = inventories[userAddress][productId];\n        require(bytes(inventory.productId).length != 0, \"Product not found in the inventory\");\n        return (inventory.quantity, inventory.price);\n    }\n}\n",
  "sourcePath": "D:\\Projects\\colossus\\contracts\\InventoryManagemntContract.sol",
  "compiler": {
    "name": "solc",
    "version": "0.8.19+commit.7dd6d404.Emscripten.clang"
  },
  "schemaVersion": "3.4.16",
  "updatedAt": "2024-09-14T02:21:19.446Z",
  "networkType": "ethereum",
  "devdoc": {
    "kind": "dev",
    "methods": {},
    "version": 1
  },
  "userdoc": {
    "kind": "user",
    "methods": {},
    "version": 1
  }
}