{
  "contractName": "SupplyChainManagement",
  "abi": [
    {
      "inputs": [
        {
          "internalType": "address",
          "name": "userManagementAddress",
          "type": "address"
        },
        {
          "internalType": "address",
          "name": "inventoryManagementAddress",
          "type": "address"
        }
      ],
      "stateMutability": "nonpayable",
      "type": "constructor"
    },
    {
      "inputs": [
        {
          "internalType": "string",
          "name": "",
          "type": "string"
        },
        {
          "internalType": "uint256",
          "name": "",
          "type": "uint256"
        }
      ],
      "name": "shipments",
      "outputs": [
        {
          "internalType": "string",
          "name": "productId",
          "type": "string"
        },
        {
          "internalType": "address",
          "name": "origin",
          "type": "address"
        },
        {
          "internalType": "address",
          "name": "destination",
          "type": "address"
        },
        {
          "internalType": "enum SupplyChainManagement.ShipmentStatus",
          "name": "status",
          "type": "uint8"
        },
        {
          "internalType": "uint256",
          "name": "timestamp",
          "type": "uint256"
        }
      ],
      "stateMutability": "view",
      "type": "function",
      "constant": true
    },
    {
      "inputs": [
        {
          "internalType": "string",
          "name": "productId",
          "type": "string"
        },
        {
          "internalType": "address",
          "name": "origin",
          "type": "address"
        },
        {
          "internalType": "address",
          "name": "destination",
          "type": "address"
        },
        {
          "internalType": "enum SupplyChainManagement.ShipmentStatus",
          "name": "status",
          "type": "uint8"
        }
      ],
      "name": "createShipment",
      "outputs": [],
      "stateMutability": "nonpayable",
      "type": "function"
    },
    {
      "inputs": [
        {
          "internalType": "string",
          "name": "productId",
          "type": "string"
        }
      ],
      "name": "getShipmentHistory",
      "outputs": [
        {
          "components": [
            {
              "internalType": "string",
              "name": "productId",
              "type": "string"
            },
            {
              "internalType": "address",
              "name": "origin",
              "type": "address"
            },
            {
              "internalType": "address",
              "name": "destination",
              "type": "address"
            },
            {
              "internalType": "enum SupplyChainManagement.ShipmentStatus",
              "name": "status",
              "type": "uint8"
            },
            {
              "internalType": "uint256",
              "name": "timestamp",
              "type": "uint256"
            }
          ],
          "internalType": "struct SupplyChainManagement.Shipment[]",
          "name": "",
          "type": "tuple[]"
        }
      ],
      "stateMutability": "view",
      "type": "function",
      "constant": true
    },
    {
      "inputs": [
        {
          "internalType": "string",
          "name": "productId",
          "type": "string"
        }
      ],
      "name": "getShipmentCount",
      "outputs": [
        {
          "internalType": "uint256",
          "name": "",
          "type": "uint256"
        }
      ],
      "stateMutability": "view",
      "type": "function",
      "constant": true
    }
  ],
  "bytecode": "0x60806040523480156200001157600080fd5b50604051620011793803806200117983398181016040528101906200003791906200012a565b816000806101000a81548173ffffffffffffffffffffffffffffffffffffffff021916908373ffffffffffffffffffffffffffffffffffffffff16021790555080600160006101000a81548173ffffffffffffffffffffffffffffffffffffffff021916908373ffffffffffffffffffffffffffffffffffffffff160217905550505062000171565b600080fd5b600073ffffffffffffffffffffffffffffffffffffffff82169050919050565b6000620000f282620000c5565b9050919050565b6200010481620000e5565b81146200011057600080fd5b50565b6000815190506200012481620000f9565b92915050565b60008060408385031215620001445762000143620000c0565b5b6000620001548582860162000113565b9250506020620001678582860162000113565b9150509250929050565b610ff880620001816000396000f3fe608060405234801561001057600080fd5b506004361061004c5760003560e01c806303e39f0a1461005157806306c7dea814610081578063ab265fd2146100b1578063bff66e87146100e5575b600080fd5b61006b60048036038101906100669190610756565b610101565b6040516100789190610a27565b60405180910390f35b61009b60048036038101906100969190610756565b610301565b6040516100a89190610a58565b60405180910390f35b6100cb60048036038101906100c69190610a9f565b61032c565b6040516100dc959493929190610b63565b60405180910390f35b6100ff60048036038101906100fa9190610c0e565b61046a565b005b60606002826040516101139190610ccd565b9081526020016040518091039020805480602002602001604051908101604052809291908181526020016000905b828210156102f657838290600052602060002090600402016040518060a001604052908160008201805461017490610d13565b80601f01602080910402602001604051908101604052809291908181526020018280546101a090610d13565b80156101ed5780601f106101c2576101008083540402835291602001916101ed565b820191906000526020600020905b8154815290600101906020018083116101d057829003601f168201915b505050505081526020016001820160009054906101000a900473ffffffffffffffffffffffffffffffffffffffff1673ffffffffffffffffffffffffffffffffffffffff1673ffffffffffffffffffffffffffffffffffffffff1681526020016002820160009054906101000a900473ffffffffffffffffffffffffffffffffffffffff1673ffffffffffffffffffffffffffffffffffffffff1673ffffffffffffffffffffffffffffffffffffffff1681526020016002820160149054906101000a900460ff1660038111156102c7576102c661088b565b5b60038111156102d9576102d861088b565b5b815260200160038201548152505081526020019060010190610141565b505050509050919050565b60006002826040516103139190610ccd565b9081526020016040518091039020805490509050919050565b600282805160208101820180518482526020830160208501208183528095505050505050818154811061035e57600080fd5b90600052602060002090600402016000915091505080600001805461038290610d13565b80601f01602080910402602001604051908101604052809291908181526020018280546103ae90610d13565b80156103fb5780601f106103d0576101008083540402835291602001916103fb565b820191906000526020600020905b8154815290600101906020018083116103de57829003601f168201915b5050505050908060010160009054906101000a900473ffffffffffffffffffffffffffffffffffffffff16908060020160009054906101000a900473ffffffffffffffffffffffffffffffffffffffff16908060020160149054906101000a900460ff16908060030154905085565b60028460405161047a9190610ccd565b90815260200160405180910390206040518060a001604052808681526020018573ffffffffffffffffffffffffffffffffffffffff1681526020018473ffffffffffffffffffffffffffffffffffffffff1681526020018360038111156104e4576104e361088b565b5b8152602001428152509080600181540180825580915050600190039060005260206000209060040201600090919091909150600082015181600001908161052b9190610ef0565b5060208201518160010160006101000a81548173ffffffffffffffffffffffffffffffffffffffff021916908373ffffffffffffffffffffffffffffffffffffffff16021790555060408201518160020160006101000a81548173ffffffffffffffffffffffffffffffffffffffff021916908373ffffffffffffffffffffffffffffffffffffffff16021790555060608201518160020160146101000a81548160ff021916908360038111156105e5576105e461088b565b5b021790555060808201518160030155505050505050565b6000604051905090565b600080fd5b600080fd5b600080fd5b600080fd5b6000601f19601f8301169050919050565b7f4e487b7100000000000000000000000000000000000000000000000000000000600052604160045260246000fd5b6106638261061a565b810181811067ffffffffffffffff821117156106825761068161062b565b5b80604052505050565b60006106956105fc565b90506106a1828261065a565b919050565b600067ffffffffffffffff8211156106c1576106c061062b565b5b6106ca8261061a565b9050602081019050919050565b82818337600083830152505050565b60006106f96106f4846106a6565b61068b565b90508281526020810184848401111561071557610714610615565b5b6107208482856106d7565b509392505050565b600082601f83011261073d5761073c610610565b5b813561074d8482602086016106e6565b91505092915050565b60006020828403121561076c5761076b610606565b5b600082013567ffffffffffffffff81111561078a5761078961060b565b5b61079684828501610728565b91505092915050565b600081519050919050565b600082825260208201905092915050565b6000819050602082019050919050565b600081519050919050565b600082825260208201905092915050565b60005b838110156108055780820151818401526020810190506107ea565b60008484015250505050565b600061081c826107cb565b61082681856107d6565b93506108368185602086016107e7565b61083f8161061a565b840191505092915050565b600073ffffffffffffffffffffffffffffffffffffffff82169050919050565b60006108758261084a565b9050919050565b6108858161086a565b82525050565b7f4e487b7100000000000000000000000000000000000000000000000000000000600052602160045260246000fd5b600481106108cb576108ca61088b565b5b50565b60008190506108dc826108ba565b919050565b60006108ec826108ce565b9050919050565b6108fc816108e1565b82525050565b6000819050919050565b61091581610902565b82525050565b600060a08301600083015184820360008601526109388282610811565b915050602083015161094d602086018261087c565b506040830151610960604086018261087c565b50606083015161097360608601826108f3565b506080830151610986608086018261090c565b508091505092915050565b600061099d838361091b565b905092915050565b6000602082019050919050565b60006109bd8261079f565b6109c781856107aa565b9350836020820285016109d9856107bb565b8060005b85811015610a1557848403895281516109f68582610991565b9450610a01836109a5565b925060208a019950506001810190506109dd565b50829750879550505050505092915050565b60006020820190508181036000830152610a4181846109b2565b905092915050565b610a5281610902565b82525050565b6000602082019050610a6d6000830184610a49565b92915050565b610a7c81610902565b8114610a8757600080fd5b50565b600081359050610a9981610a73565b92915050565b60008060408385031215610ab657610ab5610606565b5b600083013567ffffffffffffffff811115610ad457610ad361060b565b5b610ae085828601610728565b9250506020610af185828601610a8a565b9150509250929050565b600082825260208201905092915050565b6000610b17826107cb565b610b218185610afb565b9350610b318185602086016107e7565b610b3a8161061a565b840191505092915050565b610b4e8161086a565b82525050565b610b5d816108e1565b82525050565b600060a0820190508181036000830152610b7d8188610b0c565b9050610b8c6020830187610b45565b610b996040830186610b45565b610ba66060830185610b54565b610bb36080830184610a49565b9695505050505050565b610bc68161086a565b8114610bd157600080fd5b50565b600081359050610be381610bbd565b92915050565b60048110610bf657600080fd5b50565b600081359050610c0881610be9565b92915050565b60008060008060808587031215610c2857610c27610606565b5b600085013567ffffffffffffffff811115610c4657610c4561060b565b5b610c5287828801610728565b9450506020610c6387828801610bd4565b9350506040610c7487828801610bd4565b9250506060610c8587828801610bf9565b91505092959194509250565b600081905092915050565b6000610ca7826107cb565b610cb18185610c91565b9350610cc18185602086016107e7565b80840191505092915050565b6000610cd98284610c9c565b915081905092915050565b7f4e487b7100000000000000000000000000000000000000000000000000000000600052602260045260246000fd5b60006002820490506001821680610d2b57607f821691505b602082108103610d3e57610d3d610ce4565b5b50919050565b60008190508160005260206000209050919050565b60006020601f8301049050919050565b600082821b905092915050565b600060088302610da67fffffffffffffffffffffffffffffffffffffffffffffffffffffffffffffffff82610d69565b610db08683610d69565b95508019841693508086168417925050509392505050565b6000819050919050565b6000610ded610de8610de384610902565b610dc8565b610902565b9050919050565b6000819050919050565b610e0783610dd2565b610e1b610e1382610df4565b848454610d76565b825550505050565b600090565b610e30610e23565b610e3b818484610dfe565b505050565b5b81811015610e5f57610e54600082610e28565b600181019050610e41565b5050565b601f821115610ea457610e7581610d44565b610e7e84610d59565b81016020851015610e8d578190505b610ea1610e9985610d59565b830182610e40565b50505b505050565b600082821c905092915050565b6000610ec760001984600802610ea9565b1980831691505092915050565b6000610ee08383610eb6565b9150826002028217905092915050565b610ef9826107cb565b67ffffffffffffffff811115610f1257610f1161062b565b5b610f1c8254610d13565b610f27828285610e63565b600060209050601f831160018114610f5a5760008415610f48578287015190505b610f528582610ed4565b865550610fba565b601f198416610f6886610d44565b60005b82811015610f9057848901518255600182019150602085019450602081019050610f6b565b86831015610fad5784890151610fa9601f891682610eb6565b8355505b6001600288020188555050505b50505050505056fea2646970667358221220dfd51410e6e5b3b5920b1361c38c6bf2562300262a867088c705c2c02da27e2064736f6c63430008130033",
  "immutableReferences": {},
  "source": "// SPDX-License-Identifier: MIT\npragma solidity ^0.8.19;\n\nimport \"./UserManagementContract.sol\";\nimport \"./InventoryManagemntContract.sol\";\n\ncontract SupplyChainManagement {\n    UserManagement private userManagement;\n    InventoryManagement private inventoryManagement;\n\n    enum ShipmentStatus { Created, InTransit, Delivered, QualityVerified }\n\n    struct Shipment {\n        string productId;\n        address origin;\n        address destination;\n        ShipmentStatus status;\n        uint256 timestamp;\n    }\n\n    mapping(string => Shipment[]) public shipments;\n\n    constructor(address userManagementAddress, address inventoryManagementAddress) {\n        userManagement = UserManagement(userManagementAddress);\n        inventoryManagement = InventoryManagement(inventoryManagementAddress);\n    }\n\n    function createShipment(string memory productId, address origin, address destination, ShipmentStatus status) public {\n        shipments[productId].push(Shipment(productId, origin, destination, status, block.timestamp));\n    }\n\n    function getShipmentHistory(string memory productId) public view returns (Shipment[] memory) {\n        return shipments[productId];\n    }\n\n    // Adding getShipmentCount function\n    function getShipmentCount(string memory productId) public view returns (uint256) {\n        return shipments[productId].length;\n    }\n}\n",
  "sourcePath": "D:\\Projects\\colossus\\contracts\\SupplyChainManagementContract.sol",
  "compiler": {
    "name": "solc",
    "version": "0.8.19+commit.7dd6d404.Emscripten.clang"
  },
  "schemaVersion": "3.4.16",
  "updatedAt": "2024-09-14T02:26:05.439Z",
  "networkType": "ethereum",
  "devdoc": {
    "kind": "dev",
    "methods": {},
    "version": 1
  },
  "userdoc": {
    "kind": "user",
    "methods": {},
    "version": 1
  }
}