{
  "contractName": "UserManagement",
  "abi": [
    {
      "anonymous": false,
      "inputs": [
        {
          "indexed": false,
          "internalType": "address",
          "name": "userAddress",
          "type": "address"
        },
        {
          "indexed": false,
          "internalType": "string",
          "name": "newUsername",
          "type": "string"
        },
        {
          "indexed": false,
          "internalType": "enum UserManagement.Role",
          "name": "newRole",
          "type": "uint8"
        }
      ],
      "name": "UserProfileUpdated",
      "type": "event"
    },
    {
      "anonymous": false,
      "inputs": [
        {
          "indexed": false,
          "internalType": "address",
          "name": "userAddress",
          "type": "address"
        },
        {
          "indexed": false,
          "internalType": "string",
          "name": "username",
          "type": "string"
        },
        {
          "indexed": false,
          "internalType": "enum UserManagement.Role",
          "name": "role",
          "type": "uint8"
        }
      ],
      "name": "UserRegistered",
      "type": "event"
    },
    {
      "inputs": [
        {
          "internalType": "address",
          "name": "",
          "type": "address"
        }
      ],
      "name": "isUserRegistered",
      "outputs": [
        {
          "internalType": "bool",
          "name": "",
          "type": "bool"
        }
      ],
      "stateMutability": "view",
      "type": "function",
      "constant": true
    },
    {
      "inputs": [
        {
          "internalType": "address",
          "name": "",
          "type": "address"
        }
      ],
      "name": "users",
      "outputs": [
        {
          "internalType": "address",
          "name": "userAddress",
          "type": "address"
        },
        {
          "internalType": "string",
          "name": "username",
          "type": "string"
        },
        {
          "internalType": "enum UserManagement.Role",
          "name": "role",
          "type": "uint8"
        }
      ],
      "stateMutability": "view",
      "type": "function",
      "constant": true
    },
    {
      "inputs": [
        {
          "internalType": "address",
          "name": "msg_address",
          "type": "address"
        },
        {
          "internalType": "string",
          "name": "username",
          "type": "string"
        },
        {
          "internalType": "enum UserManagement.Role",
          "name": "role",
          "type": "uint8"
        }
      ],
      "name": "registerUser",
      "outputs": [],
      "stateMutability": "nonpayable",
      "type": "function"
    },
    {
      "inputs": [
        {
          "internalType": "address",
          "name": "msg_address",
          "type": "address"
        },
        {
          "internalType": "string",
          "name": "newUsername",
          "type": "string"
        },
        {
          "internalType": "enum UserManagement.Role",
          "name": "newRole",
          "type": "uint8"
        }
      ],
      "name": "updateUserProfile",
      "outputs": [],
      "stateMutability": "nonpayable",
      "type": "function"
    },
    {
      "inputs": [
        {
          "internalType": "address",
          "name": "userAddress",
          "type": "address"
        }
      ],
      "name": "getUser",
      "outputs": [
        {
          "internalType": "string",
          "name": "",
          "type": "string"
        },
        {
          "internalType": "enum UserManagement.Role",
          "name": "",
          "type": "uint8"
        }
      ],
      "stateMutability": "view",
      "type": "function",
      "constant": true
    }
  ],
  "bytecode": "0x608060405234801561001057600080fd5b50610fd4806100206000396000f3fe608060405234801561001057600080fd5b50600436106100575760003560e01c8063163f75221461005c5780634fb922e11461008c5780636f77926b146100a857806381efad24146100d9578063a87430ba146100f5575b600080fd5b6100766004803603810190610071919061082e565b610127565b6040516100839190610876565b60405180910390f35b6100a660048036038101906100a191906109fc565b610147565b005b6100c260048036038101906100bd919061082e565b610294565b6040516100d0929190610b61565b60405180910390f35b6100f360048036038101906100ee91906109fc565b6104a8565b005b61010f600480360381019061010a919061082e565b6106dd565b60405161011e93929190610ba0565b60405180910390f35b60016020528060005260406000206000915054906101000a900460ff1681565b600160008473ffffffffffffffffffffffffffffffffffffffff1673ffffffffffffffffffffffffffffffffffffffff16815260200190815260200160002060009054906101000a900460ff166101d3576040517f08c379a00000000000000000000000000000000000000000000000000000000081526004016101ca90610c2a565b60405180910390fd5b60008060008573ffffffffffffffffffffffffffffffffffffffff1673ffffffffffffffffffffffffffffffffffffffff1681526020019081526020016000209050828160010190816102269190610e60565b50818160020160006101000a81548160ff0219169083600481111561024e5761024d610aea565b5b02179055507fc850481c1ad25c81b56cbec73884b05256ab45852acde5a605f752999466109184848460405161028693929190610ba0565b60405180910390a150505050565b60606000600160008473ffffffffffffffffffffffffffffffffffffffff1673ffffffffffffffffffffffffffffffffffffffff16815260200190815260200160002060009054906101000a900460ff16610324576040517f08c379a000000000000000000000000000000000000000000000000000000000815260040161031b90610c2a565b60405180910390fd5b60008060008573ffffffffffffffffffffffffffffffffffffffff1673ffffffffffffffffffffffffffffffffffffffff1681526020019081526020016000206040518060600160405290816000820160009054906101000a900473ffffffffffffffffffffffffffffffffffffffff1673ffffffffffffffffffffffffffffffffffffffff1673ffffffffffffffffffffffffffffffffffffffff1681526020016001820180546103d590610c79565b80601f016020809104026020016040519081016040528092919081815260200182805461040190610c79565b801561044e5780601f106104235761010080835404028352916020019161044e565b820191906000526020600020905b81548152906001019060200180831161043157829003601f168201915b505050505081526020016002820160009054906101000a900460ff16600481111561047c5761047b610aea565b5b600481111561048e5761048d610aea565b5b815250509050806020015181604001519250925050915091565b600160008473ffffffffffffffffffffffffffffffffffffffff1673ffffffffffffffffffffffffffffffffffffffff16815260200190815260200160002060009054906101000a900460ff1615610535576040517f08c379a000000000000000000000000000000000000000000000000000000000815260040161052c90610f7e565b60405180910390fd5b60405180606001604052808473ffffffffffffffffffffffffffffffffffffffff16815260200183815260200182600481111561057557610574610aea565b5b8152506000808573ffffffffffffffffffffffffffffffffffffffff1673ffffffffffffffffffffffffffffffffffffffff16815260200190815260200160002060008201518160000160006101000a81548173ffffffffffffffffffffffffffffffffffffffff021916908373ffffffffffffffffffffffffffffffffffffffff16021790555060208201518160010190816106129190610e60565b5060408201518160020160006101000a81548160ff0219169083600481111561063e5761063d610aea565b5b021790555090505060018060008573ffffffffffffffffffffffffffffffffffffffff1673ffffffffffffffffffffffffffffffffffffffff16815260200190815260200160002060006101000a81548160ff0219169083151502179055507fc2e5d5da58bd71d1a2d14cdef02a4256d971b728088f8190d067ccfbae3bd73e8383836040516106d093929190610ba0565b60405180910390a1505050565b60006020528060005260406000206000915090508060000160009054906101000a900473ffffffffffffffffffffffffffffffffffffffff169080600101805461072690610c79565b80601f016020809104026020016040519081016040528092919081815260200182805461075290610c79565b801561079f5780601f106107745761010080835404028352916020019161079f565b820191906000526020600020905b81548152906001019060200180831161078257829003601f168201915b5050505050908060020160009054906101000a900460ff16905083565b6000604051905090565b600080fd5b600080fd5b600073ffffffffffffffffffffffffffffffffffffffff82169050919050565b60006107fb826107d0565b9050919050565b61080b816107f0565b811461081657600080fd5b50565b60008135905061082881610802565b92915050565b600060208284031215610844576108436107c6565b5b600061085284828501610819565b91505092915050565b60008115159050919050565b6108708161085b565b82525050565b600060208201905061088b6000830184610867565b92915050565b600080fd5b600080fd5b6000601f19601f8301169050919050565b7f4e487b7100000000000000000000000000000000000000000000000000000000600052604160045260246000fd5b6108e48261089b565b810181811067ffffffffffffffff82111715610903576109026108ac565b5b80604052505050565b60006109166107bc565b905061092282826108db565b919050565b600067ffffffffffffffff821115610942576109416108ac565b5b61094b8261089b565b9050602081019050919050565b82818337600083830152505050565b600061097a61097584610927565b61090c565b90508281526020810184848401111561099657610995610896565b5b6109a1848285610958565b509392505050565b600082601f8301126109be576109bd610891565b5b81356109ce848260208601610967565b91505092915050565b600581106109e457600080fd5b50565b6000813590506109f6816109d7565b92915050565b600080600060608486031215610a1557610a146107c6565b5b6000610a2386828701610819565b935050602084013567ffffffffffffffff811115610a4457610a436107cb565b5b610a50868287016109a9565b9250506040610a61868287016109e7565b9150509250925092565b600081519050919050565b600082825260208201905092915050565b60005b83811015610aa5578082015181840152602081019050610a8a565b60008484015250505050565b6000610abc82610a6b565b610ac68185610a76565b9350610ad6818560208601610a87565b610adf8161089b565b840191505092915050565b7f4e487b7100000000000000000000000000000000000000000000000000000000600052602160045260246000fd5b60058110610b2a57610b29610aea565b5b50565b6000819050610b3b82610b19565b919050565b6000610b4b82610b2d565b9050919050565b610b5b81610b40565b82525050565b60006040820190508181036000830152610b7b8185610ab1565b9050610b8a6020830184610b52565b9392505050565b610b9a816107f0565b82525050565b6000606082019050610bb56000830186610b91565b8181036020830152610bc78185610ab1565b9050610bd66040830184610b52565b949350505050565b7f55736572206e6f7420726567697374657265642e000000000000000000000000600082015250565b6000610c14601483610a76565b9150610c1f82610bde565b602082019050919050565b60006020820190508181036000830152610c4381610c07565b9050919050565b7f4e487b7100000000000000000000000000000000000000000000000000000000600052602260045260246000fd5b60006002820490506001821680610c9157607f821691505b602082108103610ca457610ca3610c4a565b5b50919050565b60008190508160005260206000209050919050565b60006020601f8301049050919050565b600082821b905092915050565b600060088302610d0c7fffffffffffffffffffffffffffffffffffffffffffffffffffffffffffffffff82610ccf565b610d168683610ccf565b95508019841693508086168417925050509392505050565b6000819050919050565b6000819050919050565b6000610d5d610d58610d5384610d2e565b610d38565b610d2e565b9050919050565b6000819050919050565b610d7783610d42565b610d8b610d8382610d64565b848454610cdc565b825550505050565b600090565b610da0610d93565b610dab818484610d6e565b505050565b5b81811015610dcf57610dc4600082610d98565b600181019050610db1565b5050565b601f821115610e1457610de581610caa565b610dee84610cbf565b81016020851015610dfd578190505b610e11610e0985610cbf565b830182610db0565b50505b505050565b600082821c905092915050565b6000610e3760001984600802610e19565b1980831691505092915050565b6000610e508383610e26565b9150826002028217905092915050565b610e6982610a6b565b67ffffffffffffffff811115610e8257610e816108ac565b5b610e8c8254610c79565b610e97828285610dd3565b600060209050601f831160018114610eca5760008415610eb8578287015190505b610ec28582610e44565b865550610f2a565b601f198416610ed886610caa565b60005b82811015610f0057848901518255600182019150602085019450602081019050610edb565b86831015610f1d5784890151610f19601f891682610e26565b8355505b6001600288020188555050505b505050505050565b7f5573657220616c726561647920726567697374657265642e0000000000000000600082015250565b6000610f68601883610a76565b9150610f7382610f32565b602082019050919050565b60006020820190508181036000830152610f9781610f5b565b905091905056fea2646970667358221220cdd6fd944289f86cfff12eec12df27a9e5bda1383b6ff90482dd8fca3e4ad96164736f6c63430008130033",
  "immutableReferences": {},
  "source": "// SPDX-License-Identifier: MIT \npragma solidity ^0.8.19;\n\ncontract UserManagement {\n    enum Role { Farmer, Distributor, Retailer, Consumer, Regulator }\n\n    struct User {\n        address userAddress;\n        string username;\n        Role role;\n    }\n\n    mapping(address => User) public users;\n    mapping(address => bool) public isUserRegistered;\n\n    event UserRegistered(address userAddress, string username, Role role);\n    event UserProfileUpdated(address userAddress, string newUsername, Role newRole);\n\n    function registerUser(address msg_address, string memory username, Role role) public {\n        require(!isUserRegistered[msg_address], \"User already registered.\");\n\n        users[msg_address] = User({\n            userAddress: msg_address,\n            username: username,\n            role: role\n        });\n        isUserRegistered[msg_address] = true;\n\n        emit UserRegistered(msg_address, username, role);\n    }\n\n    function updateUserProfile(address msg_address, string memory newUsername, Role newRole) public {\n        require(isUserRegistered[msg_address], \"User not registered.\");\n\n        User storage user = users[msg_address];\n        user.username = newUsername;\n        user.role = newRole;\n\n        emit UserProfileUpdated(msg_address, newUsername, newRole);\n    }\n\n    function getUser(address userAddress) public view returns (string memory, Role) {\n        require(isUserRegistered[userAddress], \"User not registered.\");\n        User memory user = users[userAddress];\n        return (user.username, user.role);\n    }\n}\n",
  "sourcePath": "D:\\Projects\\colossus\\contracts\\UserManagementContract.sol",
  "compiler": {
    "name": "solc",
    "version": "0.8.19+commit.7dd6d404.Emscripten.clang"
  },
  "schemaVersion": "3.4.16",
  "updatedAt": "2024-09-14T02:26:05.458Z",
  "networkType": "ethereum",
  "devdoc": {
    "kind": "dev",
    "methods": {},
    "version": 1
  },
  "userdoc": {
    "kind": "user",
    "methods": {},
    "version": 1
  }
}